{
  "address": "0xA4f7B72662C128e04c72b7D6D225c7C073f15A2b",
  "abi": [
    {
      "inputs": [
        {
          "internalType": "string",
          "name": "baseURI_",
          "type": "string"
        }
      ],
      "stateMutability": "nonpayable",
      "type": "constructor"
    },
    {
      "inputs": [
        {
          "internalType": "address",
          "name": "sender",
          "type": "address"
        },
        {
          "internalType": "uint256",
          "name": "tokenId",
          "type": "uint256"
        },
        {
          "internalType": "address",
          "name": "owner",
          "type": "address"
        }
      ],
      "name": "ERC721IncorrectOwner",
      "type": "error"
    },
    {
      "inputs": [
        {
          "internalType": "address",
          "name": "operator",
          "type": "address"
        },
        {
          "internalType": "uint256",
          "name": "tokenId",
          "type": "uint256"
        }
      ],
      "name": "ERC721InsufficientApproval",
      "type": "error"
    },
    {
      "inputs": [
        {
          "internalType": "address",
          "name": "approver",
          "type": "address"
        }
      ],
      "name": "ERC721InvalidApprover",
      "type": "error"
    },
    {
      "inputs": [
        {
          "internalType": "address",
          "name": "operator",
          "type": "address"
        }
      ],
      "name": "ERC721InvalidOperator",
      "type": "error"
    },
    {
      "inputs": [
        {
          "internalType": "address",
          "name": "owner",
          "type": "address"
        }
      ],
      "name": "ERC721InvalidOwner",
      "type": "error"
    },
    {
      "inputs": [
        {
          "internalType": "address",
          "name": "receiver",
          "type": "address"
        }
      ],
      "name": "ERC721InvalidReceiver",
      "type": "error"
    },
    {
      "inputs": [
        {
          "internalType": "address",
          "name": "sender",
          "type": "address"
        }
      ],
      "name": "ERC721InvalidSender",
      "type": "error"
    },
    {
      "inputs": [
        {
          "internalType": "uint256",
          "name": "tokenId",
          "type": "uint256"
        }
      ],
      "name": "ERC721NonexistentToken",
      "type": "error"
    },
    {
      "inputs": [
        {
          "internalType": "address",
          "name": "owner",
          "type": "address"
        }
      ],
      "name": "OwnableInvalidOwner",
      "type": "error"
    },
    {
      "inputs": [
        {
          "internalType": "address",
          "name": "account",
          "type": "address"
        }
      ],
      "name": "OwnableUnauthorizedAccount",
      "type": "error"
    },
    {
      "inputs": [],
      "name": "ReentrancyGuardReentrantCall",
      "type": "error"
    },
    {
      "anonymous": false,
      "inputs": [
        {
          "indexed": true,
          "internalType": "address",
          "name": "owner",
          "type": "address"
        },
        {
          "indexed": true,
          "internalType": "address",
          "name": "approved",
          "type": "address"
        },
        {
          "indexed": true,
          "internalType": "uint256",
          "name": "tokenId",
          "type": "uint256"
        }
      ],
      "name": "Approval",
      "type": "event"
    },
    {
      "anonymous": false,
      "inputs": [
        {
          "indexed": true,
          "internalType": "address",
          "name": "owner",
          "type": "address"
        },
        {
          "indexed": true,
          "internalType": "address",
          "name": "operator",
          "type": "address"
        },
        {
          "indexed": false,
          "internalType": "bool",
          "name": "approved",
          "type": "bool"
        }
      ],
      "name": "ApprovalForAll",
      "type": "event"
    },
    {
      "anonymous": false,
      "inputs": [
        {
          "indexed": true,
          "internalType": "address",
          "name": "previousOwner",
          "type": "address"
        },
        {
          "indexed": true,
          "internalType": "address",
          "name": "newOwner",
          "type": "address"
        }
      ],
      "name": "OwnershipTransferred",
      "type": "event"
    },
    {
      "anonymous": false,
      "inputs": [
        {
          "indexed": true,
          "internalType": "uint256",
          "name": "rescueId",
          "type": "uint256"
        },
        {
          "indexed": true,
          "internalType": "address",
          "name": "rescuer",
          "type": "address"
        },
        {
          "indexed": false,
          "internalType": "string",
          "name": "animal",
          "type": "string"
        },
        {
          "indexed": false,
          "internalType": "string",
          "name": "location",
          "type": "string"
        },
        {
          "indexed": false,
          "internalType": "string",
          "name": "imageHash",
          "type": "string"
        },
        {
          "indexed": false,
          "internalType": "uint256",
          "name": "timestamp",
          "type": "uint256"
        }
      ],
      "name": "RescueAdded",
      "type": "event"
    },
    {
      "anonymous": false,
      "inputs": [
        {
          "indexed": true,
          "internalType": "address",
          "name": "from",
          "type": "address"
        },
        {
          "indexed": true,
          "internalType": "address",
          "name": "to",
          "type": "address"
        },
        {
          "indexed": true,
          "internalType": "uint256",
          "name": "tokenId",
          "type": "uint256"
        }
      ],
      "name": "Transfer",
      "type": "event"
    },
    {
      "inputs": [
        {
          "internalType": "string",
          "name": "animal",
          "type": "string"
        },
        {
          "internalType": "string",
          "name": "location",
          "type": "string"
        },
        {
          "internalType": "string",
          "name": "description",
          "type": "string"
        },
        {
          "internalType": "string",
          "name": "imageHash",
          "type": "string"
        },
        {
          "internalType": "int32",
          "name": "latitude",
          "type": "int32"
        },
        {
          "internalType": "int32",
          "name": "longitude",
          "type": "int32"
        },
        {
          "internalType": "externalEuint32",
          "name": "one",
          "type": "bytes32"
        },
        {
          "internalType": "bytes",
          "name": "proof",
          "type": "bytes"
        }
      ],
      "name": "addRescue",
      "outputs": [
        {
          "internalType": "uint256",
          "name": "rescueId",
          "type": "uint256"
        }
      ],
      "stateMutability": "nonpayable",
      "type": "function"
    },
    {
      "inputs": [
        {
          "internalType": "address",
          "name": "to",
          "type": "address"
        },
        {
          "internalType": "uint256",
          "name": "tokenId",
          "type": "uint256"
        }
      ],
      "name": "approve",
      "outputs": [],
      "stateMutability": "nonpayable",
      "type": "function"
    },
    {
      "inputs": [
        {
          "internalType": "address",
          "name": "owner",
          "type": "address"
        }
      ],
      "name": "balanceOf",
      "outputs": [
        {
          "internalType": "uint256",
          "name": "",
          "type": "uint256"
        }
      ],
      "stateMutability": "view",
      "type": "function"
    },
    {
      "inputs": [],
      "name": "baseTokenURI",
      "outputs": [
        {
          "internalType": "string",
          "name": "",
          "type": "string"
        }
      ],
      "stateMutability": "view",
      "type": "function"
    },
    {
      "inputs": [
        {
          "internalType": "uint8",
          "name": "tier",
          "type": "uint8"
        }
      ],
      "name": "claimIdentity",
      "outputs": [],
      "stateMutability": "nonpayable",
      "type": "function"
    },
    {
      "inputs": [
        {
          "internalType": "address",
          "name": "",
          "type": "address"
        }
      ],
      "name": "claimedTier",
      "outputs": [
        {
          "internalType": "uint8",
          "name": "",
          "type": "uint8"
        }
      ],
      "stateMutability": "view",
      "type": "function"
    },
    {
      "inputs": [
        {
          "internalType": "uint32",
          "name": "tier1",
          "type": "uint32"
        },
        {
          "internalType": "uint32",
          "name": "tier2",
          "type": "uint32"
        }
      ],
      "name": "contributorTier",
      "outputs": [
        {
          "internalType": "euint8",
          "name": "",
          "type": "bytes32"
        }
      ],
      "stateMutability": "nonpayable",
      "type": "function"
    },
    {
      "inputs": [
        {
          "internalType": "uint256",
          "name": "tokenId",
          "type": "uint256"
        }
      ],
      "name": "getApproved",
      "outputs": [
        {
          "internalType": "address",
          "name": "",
          "type": "address"
        }
      ],
      "stateMutability": "view",
      "type": "function"
    },
    {
      "inputs": [],
      "name": "getEncryptedTotal",
      "outputs": [
        {
          "internalType": "euint32",
          "name": "",
          "type": "bytes32"
        }
      ],
      "stateMutability": "view",
      "type": "function"
    },
    {
      "inputs": [
        {
          "internalType": "address",
          "name": "user",
          "type": "address"
        }
      ],
      "name": "getLastRescueTimestampHandle",
      "outputs": [
        {
          "internalType": "euint64",
          "name": "",
          "type": "bytes32"
        }
      ],
      "stateMutability": "view",
      "type": "function"
    },
    {
      "inputs": [
        {
          "internalType": "uint256",
          "name": "id",
          "type": "uint256"
        }
      ],
      "name": "getRescue",
      "outputs": [
        {
          "components": [
            {
              "internalType": "string",
              "name": "animal",
              "type": "string"
            },
            {
              "internalType": "string",
              "name": "location",
              "type": "string"
            },
            {
              "internalType": "string",
              "name": "description",
              "type": "string"
            },
            {
              "internalType": "string",
              "name": "imageHash",
              "type": "string"
            },
            {
              "internalType": "address",
              "name": "rescuer",
              "type": "address"
            },
            {
              "internalType": "uint256",
              "name": "timestamp",
              "type": "uint256"
            },
            {
              "internalType": "int32",
              "name": "latitude",
              "type": "int32"
            },
            {
              "internalType": "int32",
              "name": "longitude",
              "type": "int32"
            }
          ],
          "internalType": "struct WildSaveRegistry.RescueData",
          "name": "",
          "type": "tuple"
        }
      ],
      "stateMutability": "view",
      "type": "function"
    },
    {
      "inputs": [
        {
          "internalType": "address",
          "name": "user",
          "type": "address"
        }
      ],
      "name": "getRescueCountHandle",
      "outputs": [
        {
          "internalType": "euint32",
          "name": "",
          "type": "bytes32"
        }
      ],
      "stateMutability": "view",
      "type": "function"
    },
    {
      "inputs": [
        {
          "internalType": "address",
          "name": "user",
          "type": "address"
        }
      ],
      "name": "getRescuesByUser",
      "outputs": [
        {
          "internalType": "uint256[]",
          "name": "ids",
          "type": "uint256[]"
        }
      ],
      "stateMutability": "view",
      "type": "function"
    },
    {
      "inputs": [],
      "name": "getTotalRescues",
      "outputs": [
        {
          "internalType": "uint256",
          "name": "",
          "type": "uint256"
        }
      ],
      "stateMutability": "view",
      "type": "function"
    },
    {
      "inputs": [
        {
          "internalType": "address",
          "name": "user",
          "type": "address"
        }
      ],
      "name": "getUserBadgeSeedHandle",
      "outputs": [
        {
          "internalType": "euint32",
          "name": "",
          "type": "bytes32"
        }
      ],
      "stateMutability": "view",
      "type": "function"
    },
    {
      "inputs": [
        {
          "internalType": "address",
          "name": "who",
          "type": "address"
        }
      ],
      "name": "grantMyCountAccess",
      "outputs": [],
      "stateMutability": "nonpayable",
      "type": "function"
    },
    {
      "inputs": [
        {
          "internalType": "address",
          "name": "who",
          "type": "address"
        }
      ],
      "name": "grantMyCountAccessTransient",
      "outputs": [],
      "stateMutability": "nonpayable",
      "type": "function"
    },
    {
      "inputs": [
        {
          "internalType": "address",
          "name": "owner",
          "type": "address"
        },
        {
          "internalType": "address",
          "name": "operator",
          "type": "address"
        }
      ],
      "name": "isApprovedForAll",
      "outputs": [
        {
          "internalType": "bool",
          "name": "",
          "type": "bool"
        }
      ],
      "stateMutability": "view",
      "type": "function"
    },
    {
      "inputs": [
        {
          "internalType": "uint32",
          "name": "threshold",
          "type": "uint32"
        }
      ],
      "name": "isContributorAtLeast",
      "outputs": [
        {
          "internalType": "ebool",
          "name": "",
          "type": "bytes32"
        }
      ],
      "stateMutability": "nonpayable",
      "type": "function"
    },
    {
      "inputs": [],
      "name": "name",
      "outputs": [
        {
          "internalType": "string",
          "name": "",
          "type": "string"
        }
      ],
      "stateMutability": "view",
      "type": "function"
    },
    {
      "inputs": [],
      "name": "owner",
      "outputs": [
        {
          "internalType": "address",
          "name": "",
          "type": "address"
        }
      ],
      "stateMutability": "view",
      "type": "function"
    },
    {
      "inputs": [
        {
          "internalType": "uint256",
          "name": "tokenId",
          "type": "uint256"
        }
      ],
      "name": "ownerOf",
      "outputs": [
        {
          "internalType": "address",
          "name": "",
          "type": "address"
        }
      ],
      "stateMutability": "view",
      "type": "function"
    },
    {
      "inputs": [],
      "name": "protocolId",
      "outputs": [
        {
          "internalType": "uint256",
          "name": "",
          "type": "uint256"
        }
      ],
      "stateMutability": "pure",
      "type": "function"
    },
    {
      "inputs": [],
      "name": "renounceOwnership",
      "outputs": [],
      "stateMutability": "nonpayable",
      "type": "function"
    },
    {
      "inputs": [
        {
          "internalType": "address",
          "name": "from",
          "type": "address"
        },
        {
          "internalType": "address",
          "name": "to",
          "type": "address"
        },
        {
          "internalType": "uint256",
          "name": "tokenId",
          "type": "uint256"
        }
      ],
      "name": "safeTransferFrom",
      "outputs": [],
      "stateMutability": "nonpayable",
      "type": "function"
    },
    {
      "inputs": [
        {
          "internalType": "address",
          "name": "from",
          "type": "address"
        },
        {
          "internalType": "address",
          "name": "to",
          "type": "address"
        },
        {
          "internalType": "uint256",
          "name": "tokenId",
          "type": "uint256"
        },
        {
          "internalType": "bytes",
          "name": "data",
          "type": "bytes"
        }
      ],
      "name": "safeTransferFrom",
      "outputs": [],
      "stateMutability": "nonpayable",
      "type": "function"
    },
    {
      "inputs": [
        {
          "internalType": "address",
          "name": "operator",
          "type": "address"
        },
        {
          "internalType": "bool",
          "name": "approved",
          "type": "bool"
        }
      ],
      "name": "setApprovalForAll",
      "outputs": [],
      "stateMutability": "nonpayable",
      "type": "function"
    },
    {
      "inputs": [
        {
          "internalType": "string",
          "name": "baseURI_",
          "type": "string"
        }
      ],
      "name": "setBaseTokenURI",
      "outputs": [],
      "stateMutability": "nonpayable",
      "type": "function"
    },
    {
      "inputs": [
        {
          "internalType": "bytes4",
          "name": "interfaceId",
          "type": "bytes4"
        }
      ],
      "name": "supportsInterface",
      "outputs": [
        {
          "internalType": "bool",
          "name": "",
          "type": "bool"
        }
      ],
      "stateMutability": "view",
      "type": "function"
    },
    {
      "inputs": [],
      "name": "symbol",
      "outputs": [
        {
          "internalType": "string",
          "name": "",
          "type": "string"
        }
      ],
      "stateMutability": "view",
      "type": "function"
    },
    {
      "inputs": [
        {
          "internalType": "uint256",
          "name": "tokenId",
          "type": "uint256"
        }
      ],
      "name": "tokenURI",
      "outputs": [
        {
          "internalType": "string",
          "name": "",
          "type": "string"
        }
      ],
      "stateMutability": "view",
      "type": "function"
    },
    {
      "inputs": [],
      "name": "totalRescues",
      "outputs": [
        {
          "internalType": "uint256",
          "name": "",
          "type": "uint256"
        }
      ],
      "stateMutability": "view",
      "type": "function"
    },
    {
      "inputs": [
        {
          "internalType": "address",
          "name": "from",
          "type": "address"
        },
        {
          "internalType": "address",
          "name": "to",
          "type": "address"
        },
        {
          "internalType": "uint256",
          "name": "tokenId",
          "type": "uint256"
        }
      ],
      "name": "transferFrom",
      "outputs": [],
      "stateMutability": "nonpayable",
      "type": "function"
    },
    {
      "inputs": [
        {
          "internalType": "address",
          "name": "newOwner",
          "type": "address"
        }
      ],
      "name": "transferOwnership",
      "outputs": [],
      "stateMutability": "nonpayable",
      "type": "function"
    }
  ],
  "transactionHash": "0xe328b559b920a3e3b348b7df77f309269c26c64c07c979b160d62ea96d17c770",
  "args": [
    "ipfs://YOUR_BASE_CID/"
  ],
  "numDeployments": 1,
  "solcInputHash": "57d3f3c2301de43da293daa8321a7ca7",
  "bytecode": "0x6080806040523461041657613521803803809161001c828561070e565b8339810190602081830312610416578051906001600160401b038211610416570181601f82011215610416578051906001600160401b0382116105195760405192610071601f8401601f19166020018561070e565b8284526020838301011161041657815f9260208093018386015e83010152604080519161009e828461070e565b600883526757696c645361766560c01b60208401528151916100c0818461070e565b600483526315d2531160e21b60208401525f606082516100df816106f3565b82815282602082015282848201520152731364cbbf2cdf5032c47d8226a6f6fbd2afcdacac60608251610111816106f3565b73687820221192c5b662b25367f70076a37bc79b6c80825273848b0066793bcc60346da1f49049357399b8d5956020830181905273a02cda4ca3a71d7c46997716f4283aa851c2881286840181905293909201939093527f9e7b61f58c47dc699ac88507c4f5bb9f121c03808c5676a8078fe583e464970080546001600160a01b031990811690941790555f5160206135015f395f51905f528054841690911790557f9e7b61f58c47dc699ac88507c4f5bb9f121c03808c5676a8078fe583e46497028054831690911790557f9e7b61f58c47dc699ac88507c4f5bb9f121c03808c5676a8078fe583e46497038054909116731364cbbf2cdf5032c47d8226a6f6fbd2afcdacac17905583516001600160401b038111610519575f54600181811c911680156106e9575b60208210146104fb57601f8111610687575b50602094601f8211600114610626579481929394955f9261061b575b50508160011b915f199060031b1c1916175f555b82516001600160401b03811161051957600154600181811c91168015610611575b60208210146104fb57601f81116105ae575b506020601f821160011461054b57819293945f92610540575b50508160011b915f199060031b1c1916176001555b331561052d5760068054336001600160a01b0319821681179092556001600160a01b03167f8be0079c531659141344cd1fd0a4f28419497f9722a3daafe3b4186f6b6457e05f80a3600160075581516001600160401b03811161051957600f54600181811c9116801561050f575b60208210146104fb57601f8111610498575b50602092601f821160011461043757928192935f9261042c575b50508160011b915f199060031b1c191617600f555b5f5160206135015f395f51905f52548151639cd07acb60e01b81525f600480830182905260248301529091602091839160449183916001600160a01b03165af1908115610422575f916103ec575b50600d5551612dcf90816107328239f35b90506020813d60201161041a575b816104076020938361070e565b8101031261041657515f6103db565b5f80fd5b3d91506103fa565b82513d5f823e3d90fd5b015190505f80610378565b601f19821693600f5f52805f20915f5b8681106104805750836001959610610468575b505050811b01600f5561038d565b01515f1960f88460031b161c191690555f808061045a565b91926020600181928685015181550194019201610447565b600f5f527f8d1108e10bcb7c27dddfc02ed9d693a074039d026cf4ea4240b40f7d581ac802601f830160051c810191602084106104f1575b601f0160051c01905b8181106104e6575061035e565b5f81556001016104d9565b90915081906104d0565b634e487b7160e01b5f52602260045260245ffd5b90607f169061034c565b634e487b7160e01b5f52604160045260245ffd5b631e4fbdf760e01b5f525f60045260245ffd5b015190505f806102c9565b601f1982169060015f52805f20915f5b8181106105965750958360019596971061057e575b505050811b016001556102de565b01515f1960f88460031b161c191690555f8080610570565b9192602060018192868b01518155019401920161055b565b60015f527fb10e2d527612073b26eecdfd717e6a320cf44b4afac2b0732d9fcbe2b7fa0cf6601f830160051c81019160208410610607575b601f0160051c01905b8181106105fc57506102b0565b5f81556001016105ef565b90915081906105e6565b90607f169061029e565b015190505f80610269565b601f198216955f8052805f20915f5b88811061066f57508360019596979810610657575b505050811b015f5561027d565b01515f1960f88460031b161c191690555f808061064a565b91926020600181928685015181550194019201610635565b5f80527f290decd9548b62a8d60345a988386fc84ba6bc95484008f6362f93160ef3e563601f830160051c810191602084106106df575b601f0160051c01905b8181106106d4575061024d565b5f81556001016106c7565b90915081906106be565b90607f169061023b565b608081019081106001600160401b0382111761051957604052565b601f909101601f19168101906001600160401b038211908210176105195760405256fe60a0806040526004361015610012575f80fd5b5f6080525f3560e01c90816301ffc9a7146122105750806306fdde031461216e578063081812fc14612131578063095ea7b3146120455780630a5193be1461200a57806318b0091614611ebf57806323b872dd14611ea65780632b6a8a2914611ded5780632fb83b8714611ad657806330176e131461196c57806340db57e61461191757806342842e0e146118e65780634872ec9a146118aa5780635159a91714610ab057806354557a72146108e25780636352211e146108b35780636706d8d4146108945780636a8c24371461089457806370a0823114610839578063715018a6146107d3578063816700ec146107975780638da5cb5b1461076f57806395d89b41146106dc5780639f310602146106bd578063a22cb46514610616578063a740683914610479578063b88d4fde1461040d578063c87b56dd146103ee578063cf05407e146103b6578063d3808ccd1461037a578063d547cfb7146102aa578063da1f12ab1461028c578063e985e9c51461022f5763f2fde38b14610196575f80fd5b34610229576020366003190112610229576001600160a01b036101b761229f565b6101bf612b2e565b168015610210576001600160a01b03600654826001600160a01b0319821617600655167f8be0079c531659141344cd1fd0a4f28419497f9722a3daafe3b4186f6b6457e0608051608051a360805180f35b631e4fbdf760e01b608051526080516004526024608051fd5b60805180fd5b346102295760403660031901126102295761024861229f565b6001600160a01b036102586122b5565b91166080515260056020526001600160a01b0360406080512091165f52602052602060ff60405f2054166040519015158152f35b34610229576080513660031901126102295760206040516127118152f35b34610229576080513660031901126102295760805150604051608051600f546102d2816123eb565b80845290600181169081156103565750600114610312575b61030e836102fa81850382612377565b60405191829160208352602083019061227b565b0390f35b60808051600f90525160208120939250905b80821061033c575090915081016020016102fa6102ea565b919260018160209254838588010152019101909291610324565b60ff191660208086019190915291151560051b840190910191506102fa90506102ea565b34610229576020366003190112610229576001600160a01b0361039b61229f565b1660805152600b602052602060406080512054604051908152f35b34610229576020366003190112610229576103e86103d261229f565b3360805152600960205260406080512054612d27565b60805180f35b346102295760203660031901126102295761030e6102fa600435612776565b346102295760803660031901126102295761042661229f565b61042e6122b5565b906044356064359267ffffffffffffffff84116102295736602385011215610229576104676103e89436906024816004013591016123b5565b92610473838383612519565b33612b55565b346102295760203660031901126102295760043560ff81168091036102295760018110158061060b575b156105c657608051600854815b81811061058c575050600182036105505760016104ce91101561272a565b3360805152601060205260ff604060805120541681111561050b57336080515260106020526040608051209060ff19825416179055608051608051f35b60405162461bcd60e51b815260206004820152601b60248201527f616c726561647920636c61696d65642073616d652f68696768657200000000006044820152606490fd5b6002820361056a57600561056591101561272a565b6104ce565b60038214610579575b506104ce565b601461058691101561272a565b81610573565b610595816124c3565b50600401546001600160a01b031633146105b2575b6001016104b0565b916105be6001916124df565b9290506105aa565b60405162461bcd60e51b815260206004820152600c60248201527f696e76616c6964207469657200000000000000000000000000000000000000006044820152606490fd5b5060038111156104a3565b346102295760403660031901126102295761062f61229f565b60243590811515809203610229576001600160a01b03169081156106a65733608051526005602052604060805120825f5260205260405f2060ff1981541660ff83161790556040519081527f17307eab39ab6107e8899845ad3d59bd9653f200f220920489ca2b5937696c3160203392a360805180f35b50630b61174360e31b608051526004526024608051fd5b3461022957608051366003190112610229576020600d54604051908152f35b34610229576080513660031901126102295760805150604051608051600154610704816123eb565b8084529060018116908115610356575060011461072b5761030e836102fa81850382612377565b60808051600190525160208120939250905b808210610755575090915081016020016102fa6102ea565b91926001816020925483858801015201910190929161073d565b34610229576080513660031901126102295760206001600160a01b0360065416604051908152f35b34610229576020366003190112610229576001600160a01b036107b861229f565b1660805152600a602052602060406080512054604051908152f35b3461022957608051366003190112610229576107ed612b2e565b6006546001600160a01b031981166006556001600160a01b0360805191167f8be0079c531659141344cd1fd0a4f28419497f9722a3daafe3b4186f6b6457e0608051608051a360805180f35b34610229576020366003190112610229576001600160a01b0361085a61229f565b16801561087b57608051526003602052602060406080512054604051908152f35b6322718ad960e21b608051526080516004526024608051fd5b3461022957608051366003190112610229576020600e54604051908152f35b346102295760203660031901126102295760206108d1600435612a47565b6001600160a01b0360405191168152f35b346102295760203660031901126102295760043560405161090281612346565b606081526060602082015260606040820152606080820152608051608082015260805160a082015260805160c082015260e0608051910152600854811015610a6b57610950610120916124c3565b506040519061095e82612346565b61096781612423565b825261097560018201612423565b6020830190815261098860028301612423565b906040840191825261099c60038401612423565b92606085019384526001600160a01b03610a46816004840154169560808801968752610a33600660058601549560a08b01968752015496610a2060c08b01978960030b895260e08c019960201c60030b8a52610a0d604051809e819e6020835251916101006020820152019061227b565b90518c8203601f190160408e015261227b565b90518a8203601f190160608c015261227b565b9051888203601f190160808a015261227b565b94511660a08601525160c08501525160030b60e08401525160030b6101008301520390f35b60405162461bcd60e51b815260206004820152600a60248201527f696e76616c6964206964000000000000000000000000000000000000000000006044820152606490fd5b34610229576101003660031901126102295760043567ffffffffffffffff811161022957610ae2903690600401612318565b9060243567ffffffffffffffff811161022957610b03903690600401612318565b929060443567ffffffffffffffff811161022957610b25903690600401612318565b94909360643567ffffffffffffffff811161022957610b48903690600401612318565b96608435600381900b908190036102295760a435600381900b98908990036102295760e43567ffffffffffffffff811161022957610b8a903690600401612318565b939092600260075414611897576002600755891561185257871561180d578b156117c8576008549a60405193610bbf85612346565b610bca368d8b6123b5565b8552610bd7368b8d6123b5565b93602086019485523690610bea926123b5565b6040850190815291610bfd368f8a6123b5565b60608601523360808601524260a086015260c085015260e0840152680100000000000000008b101561163a5760018b01600855610c398b6124c3565b9290926117af57835180519067ffffffffffffffff821161163a57610c6882610c6287546123eb565b876126bb565b6020906001601f84111461174657918091610c9a93608051926115b3575b50508160011b915f199060031b1c19161790565b83555b5180519067ffffffffffffffff821161163a57610cca82610cc160018701546123eb565b600187016126bb565b6020906001601f8411146116d757918091610cfb93608051926116cc5750508160011b915f199060031b1c19161790565b60018301555b5180519067ffffffffffffffff821161163a57610d2e82610d2560028601546123eb565b600286016126bb565b6020906001601f84111461165d57918091610d5f93608051926116525750508160011b915f199060031b1c19161790565b60028201555b606082015180519067ffffffffffffffff821161163a57610d9682610d8d60038601546123eb565b600386016126bb565b6020906001601f8411146115be57610e5993610dd484610ea2989560209895600695608051926115b35750508160011b915f199060031b1c19161790565b60038201555b6001600160a01b036080840151166001600160a01b036004830191166001600160a01b031982541617905560a08301516005820155019060c08101519063ffffffff60e08454920151871b67ffffffff000000001692169067ffffffffffffffff191617179055336080515260098352604060805120549436916123b5565b6001600160a01b035f516020612da35f395f51905f525416604051808095819463196d0b9b60e01b835260c435600484015233602484015260806044840152608483019061227b565b60046064830152608051919003925af19081156114035760805191611581575b506001600160a01b037f9e7b61f58c47dc699ac88507c4f5bb9f121c03808c5676a8078fe583e46497005416803b1561022957604051630f8e573b60e21b81526080805160048301859052336024840152905191929091839160449183915af1801561140357611568575b50808215611558575b15611546575b5f516020612da35f395f51905f525460405163022f65e760e31b815260048101939093526024830191909152608080517fff000000000000000000000000000000000000000000000000000000000000001660448401525160209183916064918391906001600160a01b03165af180156114035760805190611512575b610fe19150336080515260096020528060406080512055610fda3082612d27565b3390612d27565b5f516020612da35f395f51905f5254604051639cd07acb60e01b81524267ffffffffffffffff166004820152906001600160a01b03168160448160209360056024830152608051905af1801561140357608051906114de575b61105b91503360805152600a6020528060406080512055610fda3082612d27565b3360805152600c60205260ff60406080512054161561141e575b600d548015611410575b5f516020612da35f395f51905f525460405163022f65e760e31b8152600481019290925260016024830152600160f81b604483015260805160209183916064918391906001600160a01b03165af1801561140357608051906113cb575b6110ec915080600d553090612d27565b6020966040516110fc8982612377565b608051815233156113b2576080805189905260028a525160409020546001600160a01b03168015159081611378575b336080515260038b5260406080512060018154019055896080515260028b526040608051206001600160a01b0333166001600160a01b03198254161790558933827fddf252ad1be2c89b69c2b068fc378daa952ba7f163c4a11628f55a4df523b3ef608051608051a45061135f5788333b611243575b5050600e54926001840180941161122b5787957f3a9e31287eb5093c44d4332c65eb6d6c1b5a07149b2aaeea79b79de8799f7516956111f66112039361121197600e556040519a60808c5260808c019161270a565b918983038c8b015261270a565b91868303604088015261270a565b924260608201528033940390a36001600755604051908152f35b634e487b7160e01b6080515260116004526024608051fd5b61127d9160405180938192630a85bd0160e11b835233600484015260805160248401528c604484015260806064840152608483019061227b565b0381608051335af1608051918161131f575b506112ea57883d156112e2573d906112a682612399565b916112b46040519384612377565b82526080513d908284013e5b815191826112df57633250574960e11b60805152336004526024608051fd5b01fd5b6060906112c0565b6001600160e01b03191663757a42ff60e11b016113085788886111a1565b633250574960e11b60805152336004526024608051fd5b9091508981813d8311611358575b6113378183612377565b8101031261022957516001600160e01b03198116810361022957908a61128f565b503d61132d565b6339e3563760e11b608051526080516004526024608051fd5b6113978a5f52600460205260405f206001600160a01b03198154169055565b806080515260038b526040608051205f19815401905561112b565b633250574960e11b608051526080516004526024608051fd5b506020813d6020116113fb575b816113e560209383612377565b810103126113f7576110ec90516110dc565b5f80fd5b3d91506113d8565b6040513d608051823e3d90fd5b50611419612cd9565b61107f565b5f516020612da35f395f51905f5254604051636baeb74560e11b81526004808201526080519091602091839160249183916001600160a01b03165af1801561140357608051906114aa575b6114a591503360805152600b60205280604060805120553360805152600c602052604060805120600160ff19825416179055610fda3082612d27565b611075565b506020813d6020116114d6575b816114c460209383612377565b810103126113f7576114a59051611469565b3d91506114b7565b506020813d60201161150a575b816114f860209383612377565b810103126113f75761105b905161103a565b3d91506114eb565b506020813d60201161153e575b8161152c60209383612377565b810103126113f757610fe19051610fb9565b3d915061151f565b506020611551612cd9565b9050610f3c565b9150611562612cd9565b91610f36565b60805161157491612377565b6080516102295789610f2d565b90506020813d6020116115ab575b8161159c60209383612377565b810103126113f7575189610ec2565b3d915061158f565b015190505f80610c86565b90601f1983169160038501608051528160805120926080515b81811061162257508460209794600694610e599894610ea29b986001951061160a575b505050811b016003820155610dda565b01515f1960f88460031b161c191690555f80806115fa565b929360206001819287860151815501950193016115d7565b634e487b7160e01b6080515260416004526024608051fd5b015190508e80610c86565b90601f1983169160028501608051528160805120926080515b8181106116b4575090846001959493921061169c575b505050811b016002820155610d65565b01515f1960f88460031b161c191690558d808061168c565b92936020600181928786015181550195019301611676565b015190508f80610c86565b90601f1983169160018601608051528160805120926080515b81811061172e5750908460019594939210611716575b505050811b016001830155610d01565b01515f1960f88460031b161c191690558e8080611706565b929360206001819287860151815501950193016116f0565b90601f1983169186608051528160805120926080515b818110611797575090846001959493921061177f575b505050811b018355610c9d565b01515f1960f88460031b161c191690558f8080611772565b9293602060018192878601518155019501930161175c565b634e487b7160e01b608051526080516004526024608051fd5b60405162461bcd60e51b815260206004820152600e60248201527f696d6167652072657175697265640000000000000000000000000000000000006044820152606490fd5b60405162461bcd60e51b815260206004820152601160248201527f6c6f636174696f6e2072657175697265640000000000000000000000000000006044820152606490fd5b60405162461bcd60e51b815260206004820152600f60248201527f616e696d616c20726571756972656400000000000000000000000000000000006044820152606490fd5b633ee5aeb560e01b608051526004608051fd5b34610229576020366003190112610229576001600160a01b036118cb61229f565b16608051526009602052602060406080512054604051908152f35b34610229576103e86118f7366122cb565b9060405192611907602085612377565b6080518452610473838383612519565b3461022957602036600319011261022957602061195a611935612305565b33608051526009835261195463ffffffff604060805120549216612c8a565b90612a7a565b6119643382612d27565b604051908152f35b346102295760203660031901126102295760043567ffffffffffffffff81116102295761199d903690600401612318565b6119a5612b2e565b67ffffffffffffffff811161163a576119bf600f546123eb565b601f8111611a8a575b50608051601f8211600114611a0d5781906119f99360805192611a025750508160011b915f199060031b1c19161790565b600f5560805180f35b013590508380610c86565b601f198216927f8d1108e10bcb7c27dddfc02ed9d693a074039d026cf4ea4240b40f7d581ac802916080515b858110611a7257508360019510611a59575b505050811b01600f556103e8565b01355f19600384901b60f8161c19169055828080611a4b565b90926020600181928686013581550194019101611a39565b600f60805152602060805120601f830160051c81019160208410611acc575b601f0160051c01905b818110611abf57506119c8565b6080518155600101611ab2565b9091508190611aa9565b3461022957604036600319011261022957611aef612305565b60243563ffffffff8116919082900361022957611b389033608051526009602052611954611b32611b2c63ffffffff604060805120549416612c8a565b83612a7a565b93612c8a565b5f516020612da35f395f51905f5254604051639cd07acb60e01b815260016004820152906001600160a01b03168160448160209360026024830152608051905af19081156114035760805191611dbb575b505f516020612da35f395f51905f5254604051639cd07acb60e01b8152608051600482015293906001600160a01b03168460448160209360026024830152608051905af19384156114035760805194611d84575b509060646020926001600160a01b035f516020612da35f395f51905f5254166040519687948593637702dcff60e01b8552600485015260248401526044830152608051905af19182156114035760805192611d50575b505f516020612da35f395f51905f5254604051639cd07acb60e01b81526002600482015291906001600160a01b03168260448160209360026024830152608051905af19182156114035760805192611d1b575b509060646020926001600160a01b035f516020612da35f395f51905f5254166040519586948593637702dcff60e01b8552600485015260248401526044830152608051905af180156114035760805190611ce8575b6020906119643382612d27565b506020813d602011611d13575b81611d0260209383612377565b810103126113f75760209051611cdb565b3d9150611cf5565b91506020823d602011611d48575b81611d3660209383612377565b810103126113f7579051906064611c86565b3d9150611d29565b9091506020813d602011611d7c575b81611d6c60209383612377565b810103126113f757519082611c33565b3d9150611d5f565b919093506020823d602011611db3575b81611da160209383612377565b810103126113f7579051926064611bdd565b3d9150611d94565b90506020813d602011611de5575b81611dd660209383612377565b810103126113f7575183611b89565b3d9150611dc9565b346113f75760203660031901126113f757611e0661229f565b335f52600960205260405f20546001600160a01b037f9e7b61f58c47dc699ac88507c4f5bb9f121c03808c5676a8078fe583e4649700541691823b156113f757604051630f8e573b60e21b815260048101929092526001600160a01b03166024820152905f908290604490829084905af18015611e9b57611e875760805180f35b5f611e9191612377565b5f608052806103e8565b6040513d5f823e3d90fd5b346113f757611ebd611eb7366122cb565b91612519565b005b346113f75760203660031901126113f757611ed861229f565b6008545f916001600160a01b0316825b828110611fd05750611f12611efc84612501565b93611f0a6040519586612377565b808552612501565b602084019290601f19013684375f915f5b828110611f6e578486604051918291602083019060208452518091526040830191905f5b818110611f55575050500390f35b8251845285945060209384019390920191600101611f47565b816001600160a01b036004611f82846124c3565b5001541614611f94575b600101611f23565b92611f9e816124df565b938651821015611fbc5780602060019360051b890101529050611f8c565b634e487b7160e01b5f52603260045260245ffd5b816001600160a01b036004611fe4846124c3565b5001541614611ff6575b600101611ee8565b926120026001916124df565b939050611fee565b346113f75760203660031901126113f7576001600160a01b0361202b61229f565b165f526010602052602060ff60405f205416604051908152f35b346113f75760403660031901126113f75761205e61229f565b60243561206a81612a47565b3315158061211e575b806120eb575b6120d85781906001600160a01b0380851691167f8c5be1e5ebec7d5bd14f71427d1e84f3dd0314c0f7b2291e5b200ac8c7c3b9255f80a45f5260046020526001600160a01b0360405f2091166001600160a01b03198254161790555f80f35b63a9fbf51f60e01b5f523360045260245ffd5b506001600160a01b0381165f52600560205260405f206001600160a01b0333165f5260205260ff60405f20541615612079565b50336001600160a01b0382161415612073565b346113f75760203660031901126113f75760043561214e81612a47565b505f52600460205260206001600160a01b0360405f205416604051908152f35b346113f7575f3660031901126113f7576040515f5f5461218d816123eb565b808452906001811690811561035657506001146121b45761030e836102fa81850382612377565b5f8080527f290decd9548b62a8d60345a988386fc84ba6bc95484008f6362f93160ef3e563939250905b8082106121f6575090915081016020016102fa6102ea565b9192600181602092548385880101520191019092916121de565b346113f75760203660031901126113f7576004359063ffffffff60e01b82168092036113f7576020916380ac58cd60e01b811490811561226a575b8115612259575b5015158152f35b6301ffc9a760e01b14905083612252565b635b5e139f60e01b8114915061224b565b805180835260209291819084018484015e5f828201840152601f01601f1916010190565b600435906001600160a01b03821682036113f757565b602435906001600160a01b03821682036113f757565b60609060031901126113f7576004356001600160a01b03811681036113f757906024356001600160a01b03811681036113f7579060443590565b6004359063ffffffff821682036113f757565b9181601f840112156113f75782359167ffffffffffffffff83116113f757602083818601950101116113f757565b610100810190811067ffffffffffffffff82111761236357604052565b634e487b7160e01b5f52604160045260245ffd5b90601f8019910116810190811067ffffffffffffffff82111761236357604052565b67ffffffffffffffff811161236357601f01601f191660200190565b9291926123c182612399565b916123cf6040519384612377565b8294818452818301116113f7578281602093845f960137010152565b90600182811c92168015612419575b602083101461240557565b634e487b7160e01b5f52602260045260245ffd5b91607f16916123fa565b9060405191825f825492612436846123eb565b80845293600181169081156124a1575060011461245d575b5061245b92500383612377565b565b90505f9291925260205f20905f915b81831061248557505090602061245b928201015f61244e565b602091935080600191548385890101520191019091849261246c565b90506020925061245b94915060ff191682840152151560051b8201015f61244e565b600854811015611fbc5760085f52600760205f20910201905f90565b5f1981146124ed5760010190565b634e487b7160e01b5f52601160045260245ffd5b67ffffffffffffffff81116123635760051b60200190565b91906001600160a01b031680156126a857815f5260026020526001600160a01b0360405f2054169282331515928361260c575b6001600160a01b039350856125d5575b805f52600360205260405f2060018154019055815f52600260205260405f20816001600160a01b0319825416179055857fddf252ad1be2c89b69c2b068fc378daa952ba7f163c4a11628f55a4df523b3ef5f80a4168083036125bd57505050565b6364283d7b60e01b5f5260045260245260445260645ffd5b6125f4825f52600460205260405f206001600160a01b03198154169055565b855f52600360205260405f205f19815401905561255c565b9192905080612651575b156126235782829161254c565b828461263b57637e27328960e01b5f5260045260245ffd5b63177e802f60e01b5f523360045260245260445ffd5b50338414801561267f575b806126165750825f526004602052336001600160a01b0360405f20541614612616565b50835f52600560205260405f206001600160a01b0333165f5260205260ff60405f20541661265c565b633250574960e11b5f525f60045260245ffd5b601f82116126c857505050565b5f5260205f20906020601f840160051c83019310612700575b601f0160051c01905b8181106126f5575050565b5f81556001016126ea565b90915081906126e1565b908060209392818452848401375f828201840152601f01601f1916010190565b1561273157565b60405162461bcd60e51b815260206004820152600c60248201527f6e6f7420656c696769626c6500000000000000000000000000000000000000006044820152606490fd5b805f5260026020526001600160a01b0360405f20541615612a0257600f5461279d816123eb565b156129ec5781825f937a184f03e93ff9f4daa797ed6e38ed64bf6a1f0100000000000000008110156129c1575b50806d04ee2d6d415b85acef8100000000600a9210156129a6575b662386f26fc10000811015612992575b6305f5e100811015612981575b612710811015612972575b6064811015612964575b101561295a575b6001830190600a602161284961283385612399565b946128416040519687612377565b808652612399565b602085019690601f19013688378401015b5f1901917f30313233343536373839616263646566000000000000000000000000000000008282061a835304801561289557600a909161285a565b50506040519283915f906128a8856123eb565b946001811690811561293a57506001146128dc575b6128d99450518092825e015f815203601f198101835282612377565b90565b9050600f5f527f8d1108e10bcb7c27dddfc02ed9d693a074039d026cf4ea4240b40f7d581ac802935f5b81811061291e57506128d994508301602001906128bd565b8554602082890181019190915260019096019587955001612906565b60209293506128d996915060ff19168286015280151502840101906128bd565b916001019161281e565b606460029104940193612817565b6127106004910494019361280d565b6305f5e10060089104940193612802565b662386f26fc10000601091049401936127f5565b6d04ee2d6d415b85acef8100000000602091049401936127e5565b604094507a184f03e93ff9f4daa797ed6e38ed64bf6a1f01000000000000000090049050600a6127ca565b50506040516129fc602082612377565b5f815290565b60405162461bcd60e51b815260206004820152601760248201527f4552433732313a20696e76616c696420746f6b656e49640000000000000000006044820152606490fd5b805f5260026020526001600160a01b0360405f205416908115612a68575090565b637e27328960e01b5f5260045260245ffd5b908115612b1e575b8015612b0c575b60209060646001600160a01b035f516020612da35f395f51905f525416935f6040519586948593631391547f60e01b8552600485015260248401528160448401525af1908115611e9b575f91612add575090565b90506020813d602011612b04575b81612af860209383612377565b810103126113f7575190565b3d9150612aeb565b506020612b17612cd9565b9050612a89565b9050612b28612cd9565b90612a82565b6001600160a01b03600654163303612b4257565b63118cdaa760e01b5f523360045260245ffd5b93909293823b612b67575b5050505050565b612bae6001600160a01b0392836020951696846040519788968796630a85bd0160e11b8852166004870152166024850152604484015260806064840152608483019061227b565b03815f865af15f9181612c45575b50612c1157503d15612c0a573d612bd281612399565b90612be06040519283612377565b81523d5f602083013e5b80519081612c055782633250574960e11b5f5260045260245ffd5b602001fd5b6060612bea565b6001600160e01b03191663757a42ff60e11b01612c3357505f80808080612b60565b633250574960e11b5f5260045260245ffd5b9091506020813d602011612c82575b81612c6160209383612377565b810103126113f757516001600160e01b0319811681036113f757905f612bbc565b3d9150612c54565b5f516020612da35f395f51905f5254604051639cd07acb60e01b815260048101929092526001600160a01b0316816044815f602094600460248401525af1908115611e9b575f91612add575090565b5f516020612da35f395f51905f5254604051639cd07acb60e01b81525f6004820152906001600160a01b0316816044815f602094600460248401525af1908115611e9b575f91612add575090565b6001600160a01b037f9e7b61f58c47dc699ac88507c4f5bb9f121c03808c5676a8078fe583e4649700541691823b156113f757604051635ca4b5b160e11b815260048101929092526001600160a01b03166024820152905f908290604490829084905af18015611e9b57612d985750565b5f61245b9161237756fe9e7b61f58c47dc699ac88507c4f5bb9f121c03808c5676a8078fe583e4649701a164736f6c634300081b000a9e7b61f58c47dc699ac88507c4f5bb9f121c03808c5676a8078fe583e4649701",
  "devdoc": {
    "errors": {
      "ERC721IncorrectOwner(address,uint256,address)": [
        {
          "details": "Indicates an error related to the ownership over a particular token. Used in transfers.",
          "params": {
            "owner": "Address of the current owner of a token.",
            "sender": "Address whose tokens are being transferred.",
            "tokenId": "Identifier number of a token."
          }
        }
      ],
      "ERC721InsufficientApproval(address,uint256)": [
        {
          "details": "Indicates a failure with the `operator`s approval. Used in transfers.",
          "params": {
            "operator": "Address that may be allowed to operate on tokens without being their owner.",
            "tokenId": "Identifier number of a token."
          }
        }
      ],
      "ERC721InvalidApprover(address)": [
        {
          "details": "Indicates a failure with the `approver` of a token to be approved. Used in approvals.",
          "params": {
            "approver": "Address initiating an approval operation."
          }
        }
      ],
      "ERC721InvalidOperator(address)": [
        {
          "details": "Indicates a failure with the `operator` to be approved. Used in approvals.",
          "params": {
            "operator": "Address that may be allowed to operate on tokens without being their owner."
          }
        }
      ],
      "ERC721InvalidOwner(address)": [
        {
          "details": "Indicates that an address can't be an owner. For example, `address(0)` is a forbidden owner in ERC-20. Used in balance queries.",
          "params": {
            "owner": "Address of the current owner of a token."
          }
        }
      ],
      "ERC721InvalidReceiver(address)": [
        {
          "details": "Indicates a failure with the token `receiver`. Used in transfers.",
          "params": {
            "receiver": "Address to which tokens are being transferred."
          }
        }
      ],
      "ERC721InvalidSender(address)": [
        {
          "details": "Indicates a failure with the token `sender`. Used in transfers.",
          "params": {
            "sender": "Address whose tokens are being transferred."
          }
        }
      ],
      "ERC721NonexistentToken(uint256)": [
        {
          "details": "Indicates a `tokenId` whose `owner` is the zero address.",
          "params": {
            "tokenId": "Identifier number of a token."
          }
        }
      ],
      "OwnableInvalidOwner(address)": [
        {
          "details": "The owner is not a valid owner account. (eg. `address(0)`)"
        }
      ],
      "OwnableUnauthorizedAccount(address)": [
        {
          "details": "The caller account is not authorized to perform an operation."
        }
      ],
      "ReentrancyGuardReentrantCall()": [
        {
          "details": "Unauthorized reentrant call."
        }
      ]
    },
    "events": {
      "Approval(address,address,uint256)": {
        "details": "Emitted when `owner` enables `approved` to manage the `tokenId` token."
      },
      "ApprovalForAll(address,address,bool)": {
        "details": "Emitted when `owner` enables or disables (`approved`) `operator` to manage all of its assets."
      },
      "Transfer(address,address,uint256)": {
        "details": "Emitted when `tokenId` token is transferred from `from` to `to`."
      }
    },
    "kind": "dev",
    "methods": {
      "approve(address,uint256)": {
        "details": "Gives permission to `to` to transfer `tokenId` token to another account. The approval is cleared when the token is transferred. Only a single account can be approved at a time, so approving the zero address clears previous approvals. Requirements: - The caller must own the token or be an approved operator. - `tokenId` must exist. Emits an {Approval} event."
      },
      "balanceOf(address)": {
        "details": "Returns the number of tokens in ``owner``'s account."
      },
      "getApproved(uint256)": {
        "details": "Returns the account approved for `tokenId` token. Requirements: - `tokenId` must exist."
      },
      "isApprovedForAll(address,address)": {
        "details": "Returns if the `operator` is allowed to manage all of the assets of `owner`. See {setApprovalForAll}"
      },
      "name()": {
        "details": "Returns the token collection name."
      },
      "owner()": {
        "details": "Returns the address of the current owner."
      },
      "ownerOf(uint256)": {
        "details": "Returns the owner of the `tokenId` token. Requirements: - `tokenId` must exist."
      },
      "renounceOwnership()": {
        "details": "Leaves the contract without owner. It will not be possible to call `onlyOwner` functions. Can only be called by the current owner. NOTE: Renouncing ownership will leave the contract without an owner, thereby disabling any functionality that is only available to the owner."
      },
      "safeTransferFrom(address,address,uint256)": {
        "details": "Safely transfers `tokenId` token from `from` to `to`, checking first that contract recipients are aware of the ERC-721 protocol to prevent tokens from being forever locked. Requirements: - `from` cannot be the zero address. - `to` cannot be the zero address. - `tokenId` token must exist and be owned by `from`. - If the caller is not `from`, it must have been allowed to move this token by either {approve} or   {setApprovalForAll}. - If `to` refers to a smart contract, it must implement {IERC721Receiver-onERC721Received}, which is called upon   a safe transfer. Emits a {Transfer} event."
      },
      "safeTransferFrom(address,address,uint256,bytes)": {
        "details": "Safely transfers `tokenId` token from `from` to `to`. Requirements: - `from` cannot be the zero address. - `to` cannot be the zero address. - `tokenId` token must exist and be owned by `from`. - If the caller is not `from`, it must be approved to move this token by either {approve} or {setApprovalForAll}. - If `to` refers to a smart contract, it must implement {IERC721Receiver-onERC721Received}, which is called upon   a safe transfer. Emits a {Transfer} event."
      },
      "setApprovalForAll(address,bool)": {
        "details": "Approve or remove `operator` as an operator for the caller. Operators can call {transferFrom} or {safeTransferFrom} for any token owned by the caller. Requirements: - The `operator` cannot be the address zero. Emits an {ApprovalForAll} event."
      },
      "supportsInterface(bytes4)": {
        "details": "Returns true if this contract implements the interface defined by `interfaceId`. See the corresponding https://eips.ethereum.org/EIPS/eip-165#how-interfaces-are-identified[ERC section] to learn more about how these ids are created. This function call must use less than 30 000 gas."
      },
      "symbol()": {
        "details": "Returns the token collection symbol."
      },
      "tokenURI(uint256)": {
        "details": "Returns the Uniform Resource Identifier (URI) for `tokenId` token."
      },
      "transferFrom(address,address,uint256)": {
        "details": "Transfers `tokenId` token from `from` to `to`. WARNING: Note that the caller is responsible to confirm that the recipient is capable of receiving ERC-721 or else they may be permanently lost. Usage of {safeTransferFrom} prevents loss, though the caller must understand this adds an external call which potentially creates a reentrancy vulnerability. Requirements: - `from` cannot be the zero address. - `to` cannot be the zero address. - `tokenId` token must be owned by `from`. - If the caller is not `from`, it must be approved to move this token by either {approve} or {setApprovalForAll}. Emits a {Transfer} event."
      },
      "transferOwnership(address)": {
        "details": "Transfers ownership of the contract to a new account (`newOwner`). Can only be called by the current owner."
      }
    },
    "version": 1
  },
  "userdoc": {
    "kind": "user",
    "methods": {
      "claimIdentity(uint8)": {
        "notice": "0:,1:beginner,2:intermediate,3:expert"
      }
    },
    "notice": "WildSave  FHEVM   - IPFS -  FHE  - NFT tokenId == rescueId",
    "version": 1
  },
  "storageLayout": {
    "storage": [
      {
        "astId": 39338,
        "contract": "contracts/WildSaveRegistry.sol:WildSaveRegistry",
        "label": "_name",
        "offset": 0,
        "slot": "0",
        "type": "t_string_storage"
      },
      {
        "astId": 39340,
        "contract": "contracts/WildSaveRegistry.sol:WildSaveRegistry",
        "label": "_symbol",
        "offset": 0,
        "slot": "1",
        "type": "t_string_storage"
      },
      {
        "astId": 39344,
        "contract": "contracts/WildSaveRegistry.sol:WildSaveRegistry",
        "label": "_owners",
        "offset": 0,
        "slot": "2",
        "type": "t_mapping(t_uint256,t_address)"
      },
      {
        "astId": 39348,
        "contract": "contracts/WildSaveRegistry.sol:WildSaveRegistry",
        "label": "_balances",
        "offset": 0,
        "slot": "3",
        "type": "t_mapping(t_address,t_uint256)"
      },
      {
        "astId": 39352,
        "contract": "contracts/WildSaveRegistry.sol:WildSaveRegistry",
        "label": "_tokenApprovals",
        "offset": 0,
        "slot": "4",
        "type": "t_mapping(t_uint256,t_address)"
      },
      {
        "astId": 39358,
        "contract": "contracts/WildSaveRegistry.sol:WildSaveRegistry",
        "label": "_operatorApprovals",
        "offset": 0,
        "slot": "5",
        "type": "t_mapping(t_address,t_mapping(t_address,t_bool))"
      },
      {
        "astId": 39029,
        "contract": "contracts/WildSaveRegistry.sol:WildSaveRegistry",
        "label": "_owner",
        "offset": 0,
        "slot": "6",
        "type": "t_address"
      },
      {
        "astId": 40595,
        "contract": "contracts/WildSaveRegistry.sol:WildSaveRegistry",
        "label": "_status",
        "offset": 0,
        "slot": "7",
        "type": "t_uint256"
      },
      {
        "astId": 45697,
        "contract": "contracts/WildSaveRegistry.sol:WildSaveRegistry",
        "label": "_rescues",
        "offset": 0,
        "slot": "8",
        "type": "t_array(t_struct(RescueData)45679_storage)dyn_storage"
      },
      {
        "astId": 45702,
        "contract": "contracts/WildSaveRegistry.sol:WildSaveRegistry",
        "label": "_rescueCountEnc",
        "offset": 0,
        "slot": "9",
        "type": "t_mapping(t_address,t_userDefinedValueType(euint32)46485)"
      },
      {
        "astId": 45707,
        "contract": "contracts/WildSaveRegistry.sol:WildSaveRegistry",
        "label": "_lastRescueTsEnc",
        "offset": 0,
        "slot": "10",
        "type": "t_mapping(t_address,t_userDefinedValueType(euint64)46493)"
      },
      {
        "astId": 45712,
        "contract": "contracts/WildSaveRegistry.sol:WildSaveRegistry",
        "label": "_userBadgeSeedEnc",
        "offset": 0,
        "slot": "11",
        "type": "t_mapping(t_address,t_userDefinedValueType(euint32)46485)"
      },
      {
        "astId": 45716,
        "contract": "contracts/WildSaveRegistry.sol:WildSaveRegistry",
        "label": "_userBadgeSeedInit",
        "offset": 0,
        "slot": "12",
        "type": "t_mapping(t_address,t_bool)"
      },
      {
        "astId": 45719,
        "contract": "contracts/WildSaveRegistry.sol:WildSaveRegistry",
        "label": "_totalEnc",
        "offset": 0,
        "slot": "13",
        "type": "t_userDefinedValueType(euint32)46485"
      },
      {
        "astId": 45721,
        "contract": "contracts/WildSaveRegistry.sol:WildSaveRegistry",
        "label": "totalRescues",
        "offset": 0,
        "slot": "14",
        "type": "t_uint256"
      },
      {
        "astId": 45723,
        "contract": "contracts/WildSaveRegistry.sol:WildSaveRegistry",
        "label": "baseTokenURI",
        "offset": 0,
        "slot": "15",
        "type": "t_string_storage"
      },
      {
        "astId": 45727,
        "contract": "contracts/WildSaveRegistry.sol:WildSaveRegistry",
        "label": "claimedTier",
        "offset": 0,
        "slot": "16",
        "type": "t_mapping(t_address,t_uint8)"
      }
    ],
    "types": {
      "t_address": {
        "encoding": "inplace",
        "label": "address",
        "numberOfBytes": "20"
      },
      "t_array(t_struct(RescueData)45679_storage)dyn_storage": {
        "base": "t_struct(RescueData)45679_storage",
        "encoding": "dynamic_array",
        "label": "struct WildSaveRegistry.RescueData[]",
        "numberOfBytes": "32"
      },
      "t_bool": {
        "encoding": "inplace",
        "label": "bool",
        "numberOfBytes": "1"
      },
      "t_int32": {
        "encoding": "inplace",
        "label": "int32",
        "numberOfBytes": "4"
      },
      "t_mapping(t_address,t_bool)": {
        "encoding": "mapping",
        "key": "t_address",
        "label": "mapping(address => bool)",
        "numberOfBytes": "32",
        "value": "t_bool"
      },
      "t_mapping(t_address,t_mapping(t_address,t_bool))": {
        "encoding": "mapping",
        "key": "t_address",
        "label": "mapping(address => mapping(address => bool))",
        "numberOfBytes": "32",
        "value": "t_mapping(t_address,t_bool)"
      },
      "t_mapping(t_address,t_uint256)": {
        "encoding": "mapping",
        "key": "t_address",
        "label": "mapping(address => uint256)",
        "numberOfBytes": "32",
        "value": "t_uint256"
      },
      "t_mapping(t_address,t_uint8)": {
        "encoding": "mapping",
        "key": "t_address",
        "label": "mapping(address => uint8)",
        "numberOfBytes": "32",
        "value": "t_uint8"
      },
      "t_mapping(t_address,t_userDefinedValueType(euint32)46485)": {
        "encoding": "mapping",
        "key": "t_address",
        "label": "mapping(address => euint32)",
        "numberOfBytes": "32",
        "value": "t_userDefinedValueType(euint32)46485"
      },
      "t_mapping(t_address,t_userDefinedValueType(euint64)46493)": {
        "encoding": "mapping",
        "key": "t_address",
        "label": "mapping(address => euint64)",
        "numberOfBytes": "32",
        "value": "t_userDefinedValueType(euint64)46493"
      },
      "t_mapping(t_uint256,t_address)": {
        "encoding": "mapping",
        "key": "t_uint256",
        "label": "mapping(uint256 => address)",
        "numberOfBytes": "32",
        "value": "t_address"
      },
      "t_string_storage": {
        "encoding": "bytes",
        "label": "string",
        "numberOfBytes": "32"
      },
      "t_struct(RescueData)45679_storage": {
        "encoding": "inplace",
        "label": "struct WildSaveRegistry.RescueData",
        "members": [
          {
            "astId": 45664,
            "contract": "contracts/WildSaveRegistry.sol:WildSaveRegistry",
            "label": "animal",
            "offset": 0,
            "slot": "0",
            "type": "t_string_storage"
          },
          {
            "astId": 45666,
            "contract": "contracts/WildSaveRegistry.sol:WildSaveRegistry",
            "label": "location",
            "offset": 0,
            "slot": "1",
            "type": "t_string_storage"
          },
          {
            "astId": 45668,
            "contract": "contracts/WildSaveRegistry.sol:WildSaveRegistry",
            "label": "description",
            "offset": 0,
            "slot": "2",
            "type": "t_string_storage"
          },
          {
            "astId": 45670,
            "contract": "contracts/WildSaveRegistry.sol:WildSaveRegistry",
            "label": "imageHash",
            "offset": 0,
            "slot": "3",
            "type": "t_string_storage"
          },
          {
            "astId": 45672,
            "contract": "contracts/WildSaveRegistry.sol:WildSaveRegistry",
            "label": "rescuer",
            "offset": 0,
            "slot": "4",
            "type": "t_address"
          },
          {
            "astId": 45674,
            "contract": "contracts/WildSaveRegistry.sol:WildSaveRegistry",
            "label": "timestamp",
            "offset": 0,
            "slot": "5",
            "type": "t_uint256"
          },
          {
            "astId": 45676,
            "contract": "contracts/WildSaveRegistry.sol:WildSaveRegistry",
            "label": "latitude",
            "offset": 0,
            "slot": "6",
            "type": "t_int32"
          },
          {
            "astId": 45678,
            "contract": "contracts/WildSaveRegistry.sol:WildSaveRegistry",
            "label": "longitude",
            "offset": 4,
            "slot": "6",
            "type": "t_int32"
          }
        ],
        "numberOfBytes": "224"
      },
      "t_uint256": {
        "encoding": "inplace",
        "label": "uint256",
        "numberOfBytes": "32"
      },
      "t_uint8": {
        "encoding": "inplace",
        "label": "uint8",
        "numberOfBytes": "1"
      },
      "t_userDefinedValueType(euint32)46485": {
        "encoding": "inplace",
        "label": "euint32",
        "numberOfBytes": "32"
      },
      "t_userDefinedValueType(euint64)46493": {
        "encoding": "inplace",
        "label": "euint64",
        "numberOfBytes": "32"
      }
    }
  }
}